{
  "_format": "hh-sol-artifact-1",
  "contractName": "BasicMarketPlace",
  "sourceName": "contracts/basicMarketPlace.sol",
  "abi": [
    {
      "inputs": [],
      "stateMutability": "nonpayable",
      "type": "constructor"
    },
    {
      "anonymous": false,
      "inputs": [
        {
          "indexed": true,
          "internalType": "uint8",
          "name": "_productId",
          "type": "uint8"
        }
      ],
      "name": "productSaved",
      "type": "event"
    },
    {
      "inputs": [
        {
          "internalType": "string",
          "name": "itemName",
          "type": "string"
        },
        {
          "internalType": "uint256",
          "name": "askingPrice",
          "type": "uint256"
        }
      ],
      "name": "addProduct",
      "outputs": [],
      "stateMutability": "nonpayable",
      "type": "function"
    },
    {
      "inputs": [
        {
          "internalType": "uint256",
          "name": "productId",
          "type": "uint256"
        }
      ],
      "name": "getProduct",
      "outputs": [
        {
          "components": [
            {
              "internalType": "uint256",
              "name": "id",
              "type": "uint256"
            },
            {
              "internalType": "string",
              "name": "itemName",
              "type": "string"
            },
            {
              "internalType": "address",
              "name": "creator",
              "type": "address"
            },
            {
              "internalType": "address",
              "name": "owner",
              "type": "address"
            },
            {
              "internalType": "uint256",
              "name": "askingPrice",
              "type": "uint256"
            },
            {
              "internalType": "bool",
              "name": "isSold",
              "type": "bool"
            }
          ],
          "internalType": "struct BasicMarketPlace.Product",
          "name": "",
          "type": "tuple"
        }
      ],
      "stateMutability": "view",
      "type": "function"
    },
    {
      "inputs": [],
      "name": "getProducts",
      "outputs": [
        {
          "components": [
            {
              "internalType": "uint256",
              "name": "id",
              "type": "uint256"
            },
            {
              "internalType": "string",
              "name": "itemName",
              "type": "string"
            },
            {
              "internalType": "address",
              "name": "creator",
              "type": "address"
            },
            {
              "internalType": "address",
              "name": "owner",
              "type": "address"
            },
            {
              "internalType": "uint256",
              "name": "askingPrice",
              "type": "uint256"
            },
            {
              "internalType": "bool",
              "name": "isSold",
              "type": "bool"
            }
          ],
          "internalType": "struct BasicMarketPlace.Product[]",
          "name": "",
          "type": "tuple[]"
        }
      ],
      "stateMutability": "view",
      "type": "function"
    },
    {
      "inputs": [],
      "name": "numProduct",
      "outputs": [
        {
          "internalType": "uint8",
          "name": "",
          "type": "uint8"
        }
      ],
      "stateMutability": "view",
      "type": "function"
    },
    {
      "inputs": [
        {
          "internalType": "uint256",
          "name": "",
          "type": "uint256"
        }
      ],
      "name": "products",
      "outputs": [
        {
          "internalType": "uint256",
          "name": "id",
          "type": "uint256"
        },
        {
          "internalType": "string",
          "name": "itemName",
          "type": "string"
        },
        {
          "internalType": "address",
          "name": "creator",
          "type": "address"
        },
        {
          "internalType": "address",
          "name": "owner",
          "type": "address"
        },
        {
          "internalType": "uint256",
          "name": "askingPrice",
          "type": "uint256"
        },
        {
          "internalType": "bool",
          "name": "isSold",
          "type": "bool"
        }
      ],
      "stateMutability": "view",
      "type": "function"
    },
    {
      "inputs": [
        {
          "internalType": "uint256",
          "name": "productId",
          "type": "uint256"
        }
      ],
      "name": "sellProduct",
      "outputs": [
        {
          "internalType": "bool",
          "name": "",
          "type": "bool"
        }
      ],
      "stateMutability": "nonpayable",
      "type": "function"
    }
  ],
  "bytecode": "0x60806040523480156200001157600080fd5b506000600160006101000a81548160ff021916908360ff160217905550620000776040518060400160405280600481526020017f50616e740000000000000000000000000000000000000000000000000000000081525061012b6200007d60201b60201c565b620007e9565b6000806000600160009054906101000a900460ff1660ff168152602001908152602001600020905082816001019081620000b8919062000698565b50818160040181905550600160009054906101000a900460ff1660ff168160000181905550338160020160006101000a81548173ffffffffffffffffffffffffffffffffffffffff021916908373ffffffffffffffffffffffffffffffffffffffff160217905550338160030160006101000a81548173ffffffffffffffffffffffffffffffffffffffff021916908373ffffffffffffffffffffffffffffffffffffffff16021790555060008160050160006101000a81548160ff0219169083151502179055506040518060c00160405280600160009054906101000a900460ff1660ff168152602001826001018054620001b49062000487565b80601f0160208091040260200160405190810160405280929190818152602001828054620001e29062000487565b8015620002335780601f10620002075761010080835404028352916020019162000233565b820191906000526020600020905b8154815290600101906020018083116200021557829003601f168201915b505050505081526020018260020160009054906101000a900473ffffffffffffffffffffffffffffffffffffffff1673ffffffffffffffffffffffffffffffffffffffff1681526020018260030160009054906101000a900473ffffffffffffffffffffffffffffffffffffffff1673ffffffffffffffffffffffffffffffffffffffff168152602001826004015481526020018260050160009054906101000a900460ff161515815250600080600160009054906101000a900460ff1660ff16815260200190815260200160002060008201518160000155602082015181600101908162000323919062000698565b5060408201518160020160006101000a81548173ffffffffffffffffffffffffffffffffffffffff021916908373ffffffffffffffffffffffffffffffffffffffff16021790555060608201518160030160006101000a81548173ffffffffffffffffffffffffffffffffffffffff021916908373ffffffffffffffffffffffffffffffffffffffff1602179055506080820151816004015560a08201518160050160006101000a81548160ff0219169083151502179055509050506001600081819054906101000a900460ff16809291906200040090620007bb565b91906101000a81548160ff021916908360ff16021790555050505050565b600081519050919050565b7f4e487b7100000000000000000000000000000000000000000000000000000000600052604160045260246000fd5b7f4e487b7100000000000000000000000000000000000000000000000000000000600052602260045260246000fd5b60006002820490506001821680620004a057607f821691505b602082108103620004b657620004b562000458565b5b50919050565b60008190508160005260206000209050919050565b60006020601f8301049050919050565b600082821b905092915050565b600060088302620005207fffffffffffffffffffffffffffffffffffffffffffffffffffffffffffffffff82620004e1565b6200052c8683620004e1565b95508019841693508086168417925050509392505050565b6000819050919050565b6000819050919050565b600062000579620005736200056d8462000544565b6200054e565b62000544565b9050919050565b6000819050919050565b620005958362000558565b620005ad620005a48262000580565b848454620004ee565b825550505050565b600090565b620005c4620005b5565b620005d18184846200058a565b505050565b5b81811015620005f957620005ed600082620005ba565b600181019050620005d7565b5050565b601f82111562000648576200061281620004bc565b6200061d84620004d1565b810160208510156200062d578190505b620006456200063c85620004d1565b830182620005d6565b50505b505050565b600082821c905092915050565b60006200066d600019846008026200064d565b1980831691505092915050565b60006200068883836200065a565b9150826002028217905092915050565b620006a3826200041e565b67ffffffffffffffff811115620006bf57620006be62000429565b5b620006cb825462000487565b620006d8828285620005fd565b600060209050601f831160018114620007105760008415620006fb578287015190505b6200070785826200067a565b86555062000777565b601f1984166200072086620004bc565b60005b828110156200074a5784890151825560018201915060208501945060208101905062000723565b868310156200076a578489015162000766601f8916826200065a565b8355505b6001600288020188555050505b505050505050565b7f4e487b7100000000000000000000000000000000000000000000000000000000600052601160045260246000fd5b600060ff82169050919050565b6000620007c882620007ae565b915060ff8203620007de57620007dd6200077f565b5b600182019050919050565b61160880620007f96000396000f3fe608060405234801561001057600080fd5b50600436106100625760003560e01c8063492deb15146100675780637acc0b2014610097578063b15247d9146100cc578063b9db15b4146100e8578063c29b2f2014610118578063ddd2e8a914610136575b600080fd5b610081600480360381019061007c9190610bb7565b610154565b60405161008e9190610bff565b60405180910390f35b6100b160048036038101906100ac9190610bb7565b610267565b6040516100c396959493929190610cfa565b60405180910390f35b6100e660048036038101906100e19190610e97565b610378565b005b61010260048036038101906100fd9190610bb7565b61070b565b60405161010f9190610ff3565b60405180910390f35b6101206108a4565b60405161012d9190611160565b60405180910390f35b61013e610af6565b60405161014b919061119e565b60405180910390f35b60008060008084815260200190815260200160002090508060030160009054906101000a900473ffffffffffffffffffffffffffffffffffffffff1673ffffffffffffffffffffffffffffffffffffffff163373ffffffffffffffffffffffffffffffffffffffff16036101fd576040517f08c379a00000000000000000000000000000000000000000000000000000000081526004016101f490611205565b60405180910390fd5b338160030160006101000a81548173ffffffffffffffffffffffffffffffffffffffff021916908373ffffffffffffffffffffffffffffffffffffffff16021790555060018160050160006101000a81548160ff0219169083151502179055506001915050919050565b600060205280600052604060002060009150905080600001549080600101805461029090611254565b80601f01602080910402602001604051908101604052809291908181526020018280546102bc90611254565b80156103095780601f106102de57610100808354040283529160200191610309565b820191906000526020600020905b8154815290600101906020018083116102ec57829003601f168201915b5050505050908060020160009054906101000a900473ffffffffffffffffffffffffffffffffffffffff16908060030160009054906101000a900473ffffffffffffffffffffffffffffffffffffffff16908060040154908060050160009054906101000a900460ff16905086565b6000806000600160009054906101000a900460ff1660ff1681526020019081526020016000209050828160010190816103b19190611431565b50818160040181905550600160009054906101000a900460ff1660ff168160000181905550338160020160006101000a81548173ffffffffffffffffffffffffffffffffffffffff021916908373ffffffffffffffffffffffffffffffffffffffff160217905550338160030160006101000a81548173ffffffffffffffffffffffffffffffffffffffff021916908373ffffffffffffffffffffffffffffffffffffffff16021790555060008160050160006101000a81548160ff0219169083151502179055506040518060c00160405280600160009054906101000a900460ff1660ff1681526020018260010180546104ab90611254565b80601f01602080910402602001604051908101604052809291908181526020018280546104d790611254565b80156105245780601f106104f957610100808354040283529160200191610524565b820191906000526020600020905b81548152906001019060200180831161050757829003601f168201915b505050505081526020018260020160009054906101000a900473ffffffffffffffffffffffffffffffffffffffff1673ffffffffffffffffffffffffffffffffffffffff1681526020018260030160009054906101000a900473ffffffffffffffffffffffffffffffffffffffff1673ffffffffffffffffffffffffffffffffffffffff168152602001826004015481526020018260050160009054906101000a900460ff161515815250600080600160009054906101000a900460ff1660ff1681526020019081526020016000206000820151816000015560208201518160010190816106129190611431565b5060408201518160020160006101000a81548173ffffffffffffffffffffffffffffffffffffffff021916908373ffffffffffffffffffffffffffffffffffffffff16021790555060608201518160030160006101000a81548173ffffffffffffffffffffffffffffffffffffffff021916908373ffffffffffffffffffffffffffffffffffffffff1602179055506080820151816004015560a08201518160050160006101000a81548160ff0219169083151502179055509050506001600081819054906101000a900460ff16809291906106ed90611532565b91906101000a81548160ff021916908360ff16021790555050505050565b610713610b09565b6000808381526020019081526020016000206040518060c00160405290816000820154815260200160018201805461074a90611254565b80601f016020809104026020016040519081016040528092919081815260200182805461077690611254565b80156107c35780601f10610798576101008083540402835291602001916107c3565b820191906000526020600020905b8154815290600101906020018083116107a657829003601f168201915b505050505081526020016002820160009054906101000a900473ffffffffffffffffffffffffffffffffffffffff1673ffffffffffffffffffffffffffffffffffffffff1673ffffffffffffffffffffffffffffffffffffffff1681526020016003820160009054906101000a900473ffffffffffffffffffffffffffffffffffffffff1673ffffffffffffffffffffffffffffffffffffffff1673ffffffffffffffffffffffffffffffffffffffff168152602001600482015481526020016005820160009054906101000a900460ff1615151515815250509050919050565b60606000600160009054906101000a900460ff1660ff1667ffffffffffffffff8111156108d4576108d3610d6c565b5b60405190808252806020026020018201604052801561090d57816020015b6108fa610b09565b8152602001906001900390816108f25790505b50905060005b600160009054906101000a900460ff1660ff16811015610aee5760008060008381526020019081526020016000209050806040518060c00160405290816000820154815260200160018201805461096990611254565b80601f016020809104026020016040519081016040528092919081815260200182805461099590611254565b80156109e25780601f106109b7576101008083540402835291602001916109e2565b820191906000526020600020905b8154815290600101906020018083116109c557829003601f168201915b505050505081526020016002820160009054906101000a900473ffffffffffffffffffffffffffffffffffffffff1673ffffffffffffffffffffffffffffffffffffffff1673ffffffffffffffffffffffffffffffffffffffff1681526020016003820160009054906101000a900473ffffffffffffffffffffffffffffffffffffffff1673ffffffffffffffffffffffffffffffffffffffff1673ffffffffffffffffffffffffffffffffffffffff168152602001600482015481526020016005820160009054906101000a900460ff161515151581525050838381518110610acf57610ace61155b565b5b6020026020010181905250508080610ae69061158a565b915050610913565b508091505090565b600160009054906101000a900460ff1681565b6040518060c001604052806000815260200160608152602001600073ffffffffffffffffffffffffffffffffffffffff168152602001600073ffffffffffffffffffffffffffffffffffffffff168152602001600081526020016000151581525090565b6000604051905090565b600080fd5b600080fd5b6000819050919050565b610b9481610b81565b8114610b9f57600080fd5b50565b600081359050610bb181610b8b565b92915050565b600060208284031215610bcd57610bcc610b77565b5b6000610bdb84828501610ba2565b91505092915050565b60008115159050919050565b610bf981610be4565b82525050565b6000602082019050610c146000830184610bf0565b92915050565b610c2381610b81565b82525050565b600081519050919050565b600082825260208201905092915050565b60005b83811015610c63578082015181840152602081019050610c48565b60008484015250505050565b6000601f19601f8301169050919050565b6000610c8b82610c29565b610c958185610c34565b9350610ca5818560208601610c45565b610cae81610c6f565b840191505092915050565b600073ffffffffffffffffffffffffffffffffffffffff82169050919050565b6000610ce482610cb9565b9050919050565b610cf481610cd9565b82525050565b600060c082019050610d0f6000830189610c1a565b8181036020830152610d218188610c80565b9050610d306040830187610ceb565b610d3d6060830186610ceb565b610d4a6080830185610c1a565b610d5760a0830184610bf0565b979650505050505050565b600080fd5b600080fd5b7f4e487b7100000000000000000000000000000000000000000000000000000000600052604160045260246000fd5b610da482610c6f565b810181811067ffffffffffffffff82111715610dc357610dc2610d6c565b5b80604052505050565b6000610dd6610b6d565b9050610de28282610d9b565b919050565b600067ffffffffffffffff821115610e0257610e01610d6c565b5b610e0b82610c6f565b9050602081019050919050565b82818337600083830152505050565b6000610e3a610e3584610de7565b610dcc565b905082815260208101848484011115610e5657610e55610d67565b5b610e61848285610e18565b509392505050565b600082601f830112610e7e57610e7d610d62565b5b8135610e8e848260208601610e27565b91505092915050565b60008060408385031215610eae57610ead610b77565b5b600083013567ffffffffffffffff811115610ecc57610ecb610b7c565b5b610ed885828601610e69565b9250506020610ee985828601610ba2565b9150509250929050565b610efc81610b81565b82525050565b600082825260208201905092915050565b6000610f1e82610c29565b610f288185610f02565b9350610f38818560208601610c45565b610f4181610c6f565b840191505092915050565b610f5581610cd9565b82525050565b610f6481610be4565b82525050565b600060c083016000830151610f826000860182610ef3565b5060208301518482036020860152610f9a8282610f13565b9150506040830151610faf6040860182610f4c565b506060830151610fc26060860182610f4c565b506080830151610fd56080860182610ef3565b5060a0830151610fe860a0860182610f5b565b508091505092915050565b6000602082019050818103600083015261100d8184610f6a565b905092915050565b600081519050919050565b600082825260208201905092915050565b6000819050602082019050919050565b600060c0830160008301516110596000860182610ef3565b50602083015184820360208601526110718282610f13565b91505060408301516110866040860182610f4c565b5060608301516110996060860182610f4c565b5060808301516110ac6080860182610ef3565b5060a08301516110bf60a0860182610f5b565b508091505092915050565b60006110d68383611041565b905092915050565b6000602082019050919050565b60006110f682611015565b6111008185611020565b93508360208202850161111285611031565b8060005b8581101561114e578484038952815161112f85826110ca565b945061113a836110de565b925060208a01995050600181019050611116565b50829750879550505050505092915050565b6000602082019050818103600083015261117a81846110eb565b905092915050565b600060ff82169050919050565b61119881611182565b82525050565b60006020820190506111b3600083018461118f565b92915050565b7f4f776e65722043616e204e6f7420427579205468652050726f64756374000000600082015250565b60006111ef601d83610c34565b91506111fa826111b9565b602082019050919050565b6000602082019050818103600083015261121e816111e2565b9050919050565b7f4e487b7100000000000000000000000000000000000000000000000000000000600052602260045260246000fd5b6000600282049050600182168061126c57607f821691505b60208210810361127f5761127e611225565b5b50919050565b60008190508160005260206000209050919050565b60006020601f8301049050919050565b600082821b905092915050565b6000600883026112e77fffffffffffffffffffffffffffffffffffffffffffffffffffffffffffffffff826112aa565b6112f186836112aa565b95508019841693508086168417925050509392505050565b6000819050919050565b600061132e61132961132484610b81565b611309565b610b81565b9050919050565b6000819050919050565b61134883611313565b61135c61135482611335565b8484546112b7565b825550505050565b600090565b611371611364565b61137c81848461133f565b505050565b5b818110156113a057611395600082611369565b600181019050611382565b5050565b601f8211156113e5576113b681611285565b6113bf8461129a565b810160208510156113ce578190505b6113e26113da8561129a565b830182611381565b50505b505050565b600082821c905092915050565b6000611408600019846008026113ea565b1980831691505092915050565b600061142183836113f7565b9150826002028217905092915050565b61143a82610c29565b67ffffffffffffffff81111561145357611452610d6c565b5b61145d8254611254565b6114688282856113a4565b600060209050601f83116001811461149b5760008415611489578287015190505b6114938582611415565b8655506114fb565b601f1984166114a986611285565b60005b828110156114d1578489015182556001820191506020850194506020810190506114ac565b868310156114ee57848901516114ea601f8916826113f7565b8355505b6001600288020188555050505b505050505050565b7f4e487b7100000000000000000000000000000000000000000000000000000000600052601160045260246000fd5b600061153d82611182565b915060ff82036115505761154f611503565b5b600182019050919050565b7f4e487b7100000000000000000000000000000000000000000000000000000000600052603260045260246000fd5b600061159582610b81565b91507fffffffffffffffffffffffffffffffffffffffffffffffffffffffffffffffff82036115c7576115c6611503565b5b60018201905091905056fea2646970667358221220ce0d2ece1c962c4a9d4e93d3c017d4d21c38390ab3f1adcada16c03ed0bd10f464736f6c63430008110033",
  "linkReferences": {},
  "deployedLinkReferences": {}
}